{
  "contractName": "TicTacToeGame",
  "abi": [
    {
      "constant": true,
      "inputs": [
        {
          "name": "_old",
          "type": "bytes"
        },
        {
          "name": "_new",
          "type": "bytes"
        }
      ],
      "name": "validTransition",
      "outputs": [
        {
          "name": "",
          "type": "bool"
        }
      ],
      "payable": false,
      "stateMutability": "pure",
      "type": "function",
      "signature": "0x9207bf96"
    }
  ],
  "bytecode": "0x608060405234801561001057600080fd5b50614de1806100206000396000f3006080604052600436106100275763ffffffff60e060020a6000350416639207bf96811461002c575b600080fd5b34801561003857600080fd5b506040805160206004803580820135601f81018490048402850184019095528484526100c394369492936024939284019190819084018382808284375050604080516020601f89358b018035918201839004830284018301909452808352979a9998810197919650918201945092508291508401838280828437509497506100d79650505050505050565b604080519115158252519081900360200190f35b60008060405160e060020a638a0cc0ed02815260206004820181815286516024840152865173__TicTacToeState________________________93638a0cc0ed9389939283926044019185019080838360005b8381101561014257818101518382015260200161012a565b50505050905090810190601f16801561016f5780820380516001836020036101000a031916815260200191505b509250505060206040518083038186803b15801561018c57600080fd5b505af41580156101a0573d6000803e3d6000fd5b505050506040513d60208110156101b657600080fd5b505160058111156101c357fe5b14156103cc57600160405160e060020a638a0cc0ed02815260206004820181815285516024840152855173__TicTacToeState________________________93638a0cc0ed9388939283926044019185019080838360005b8381101561023357818101518382015260200161021b565b50505050905090810190601f1680156102605780820380516001836020036101000a031916815260200191505b509250505060206040518083038186803b15801561027d57600080fd5b505af4158015610291573d6000803e3d6000fd5b505050506040513d60208110156102a757600080fd5b505160058111156102b457fe5b14156102cc576102c48383610efe565b506001610ef8565b600260405160e060020a638a0cc0ed02815260206004820181815285516024840152855173__TicTacToeState________________________93638a0cc0ed9388939283926044019185019080838360005b8381101561033657818101518382015260200161031e565b50505050905090810190601f1680156103635780820380516001836020036101000a031916815260200191505b509250505060206040518083038186803b15801561038057600080fd5b505af4158015610394573d6000803e3d6000fd5b505050506040513d60208110156103aa57600080fd5b505160058111156103b757fe5b14156103c7576102c48383612188565b610e6b565b600160405160e060020a638a0cc0ed02815260206004820181815286516024840152865173__TicTacToeState________________________93638a0cc0ed9389939283926044019185019080838360005b8381101561043657818101518382015260200161041e565b50505050905090810190601f1680156104635780820380516001836020036101000a031916815260200191505b509250505060206040518083038186803b15801561048057600080fd5b505af4158015610494573d6000803e3d6000fd5b505050506040513d60208110156104aa57600080fd5b505160058111156104b757fe5b14156107ae57600060405160e060020a638a0cc0ed02815260206004820181815285516024840152855173__TicTacToeState________________________93638a0cc0ed9388939283926044019185019080838360005b8381101561052757818101518382015260200161050f565b50505050905090810190601f1680156105545780820380516001836020036101000a031916815260200191505b509250505060206040518083038186803b15801561057157600080fd5b505af4158015610585573d6000803e3d6000fd5b505050506040513d602081101561059b57600080fd5b505160058111156105a857fe5b14156105b8576102c483836122f9565b600260405160e060020a638a0cc0ed02815260206004820181815285516024840152855173__TicTacToeState________________________93638a0cc0ed9388939283926044019185019080838360005b8381101561062257818101518382015260200161060a565b50505050905090810190601f16801561064f5780820380516001836020036101000a031916815260200191505b509250505060206040518083038186803b15801561066c57600080fd5b505af4158015610680573d6000803e3d6000fd5b505050506040513d602081101561069657600080fd5b505160058111156106a357fe5b14156106b3576102c4838361269d565b600360405160e060020a638a0cc0ed02815260206004820181815285516024840152855173__TicTacToeState________________________93638a0cc0ed9388939283926044019185019080838360005b8381101561071d578181015183820152602001610705565b50505050905090810190601f16801561074a5780820380516001836020036101000a031916815260200191505b509250505060206040518083038186803b15801561076757600080fd5b505af415801561077b573d6000803e3d6000fd5b505050506040513d602081101561079157600080fd5b5051600581111561079e57fe5b14156103c7576102c4838361280e565b600260405160e060020a638a0cc0ed02815260206004820181815286516024840152865173__TicTacToeState________________________93638a0cc0ed9389939283926044019185019080838360005b83811015610818578181015183820152602001610800565b50505050905090810190601f1680156108455780820380516001836020036101000a031916815260200191505b509250505060206040518083038186803b15801561086257600080fd5b505af4158015610876573d6000803e3d6000fd5b505050506040513d602081101561088c57600080fd5b5051600581111561089957fe5b141561099b5760045b60405160e060020a638a0cc0ed02815260206004820181815285516024840152855173__TicTacToeState________________________93638a0cc0ed9388939283926044019185019080838360005b8381101561090a5781810151838201526020016108f2565b50505050905090810190601f1680156109375780820380516001836020036101000a031916815260200191505b509250505060206040518083038186803b15801561095457600080fd5b505af4158015610968573d6000803e3d6000fd5b505050506040513d602081101561097e57600080fd5b5051600581111561098b57fe5b14156103c7576102c48383613b0e565b600360405160e060020a638a0cc0ed02815260206004820181815286516024840152865173__TicTacToeState________________________93638a0cc0ed9389939283926044019185019080838360005b83811015610a055781810151838201526020016109ed565b50505050905090810190601f168015610a325780820380516001836020036101000a031916815260200191505b509250505060206040518083038186803b158015610a4f57600080fd5b505af4158015610a63573d6000803e3d6000fd5b505050506040513d6020811015610a7957600080fd5b50516005811115610a8657fe5b1415610a935760046108a2565b600460405160e060020a638a0cc0ed02815260206004820181815286516024840152865173__TicTacToeState________________________93638a0cc0ed9389939283926044019185019080838360005b83811015610afd578181015183820152602001610ae5565b50505050905090810190601f168015610b2a5780820380516001836020036101000a031916815260200191505b509250505060206040518083038186803b158015610b4757600080fd5b505af4158015610b5b573d6000803e3d6000fd5b505050506040513d6020811015610b7157600080fd5b50516005811115610b7e57fe5b1415610c7f57600560405160e060020a638a0cc0ed02815260206004820181815285516024840152855173__TicTacToeState________________________93638a0cc0ed9388939283926044019185019080838360005b83811015610bee578181015183820152602001610bd6565b50505050905090810190601f168015610c1b5780820380516001836020036101000a031916815260200191505b509250505060206040518083038186803b158015610c3857600080fd5b505af4158015610c4c573d6000803e3d6000fd5b505050506040513d6020811015610c6257600080fd5b50516005811115610c6f57fe5b14156103c7576102c48383613e19565b600560405160e060020a638a0cc0ed02815260206004820181815286516024840152865173__TicTacToeState________________________93638a0cc0ed9389939283926044019185019080838360005b83811015610ce9578181015183820152602001610cd1565b50505050905090810190601f168015610d165780820380516001836020036101000a031916815260200191505b509250505060206040518083038186803b158015610d3357600080fd5b505af4158015610d47573d6000803e3d6000fd5b505050506040513d6020811015610d5d57600080fd5b50516005811115610d6a57fe5b1415610e6b57600060405160e060020a638a0cc0ed02815260206004820181815285516024840152855173__TicTacToeState________________________93638a0cc0ed9388939283926044019185019080838360005b83811015610dda578181015183820152602001610dc2565b50505050905090810190601f168015610e075780820380516001836020036101000a031916815260200191505b509250505060206040518083038186803b158015610e2457600080fd5b505af4158015610e38573d6000803e3d6000fd5b505050506040513d6020811015610e4e57600080fd5b50516005811115610e5b57fe5b1415610e6b576102c48383613fdf565b604080517f08c379a000000000000000000000000000000000000000000000000000000000815260206004820152602660248201527f436f756c64206e6f74206d6174636820746f20612076616c6964207472616e7360448201527f6974696f6e2e0000000000000000000000000000000000000000000000000000606482015290519081900360840190fd5b92915050565b60405160e160020a63168f060102815260206004820181815284516024840152845173__TicTacToeState________________________93632d1e0c029387939283926044019185019080838360005b83811015610f66578181015183820152602001610f4e565b50505050905090810190601f168015610f935780820380516001836020036101000a031916815260200191505b509250505060206040518083038186803b158015610fb057600080fd5b505af4158015610fc4573d6000803e3d6000fd5b505050506040513d6020811015610fda57600080fd5b505160405160e160020a63168f060102815260206004820181815284516024840152845173__TicTacToeState________________________93632d1e0c029387939283926044019185019080838360005b8381101561104457818101518382015260200161102c565b50505050905090810190601f1680156110715780820380516001836020036101000a031916815260200191505b509250505060206040518083038186803b15801561108e57600080fd5b505af41580156110a2573d6000803e3d6000fd5b505050506040513d60208110156110b857600080fd5b5051146110c457600080fd5b60405160e060020a63bc53a0b902815260206004820181815283516024840152835173__TicTacToeHelpers______________________93630fe61fb59373__TicTacToeState________________________9363bc53a0b993889391928392604401919085019080838360005b8381101561114a578181015183820152602001611132565b50505050905090810190601f1680156111775780820380516001836020036101000a031916815260200191505b509250505060206040518083038186803b15801561119457600080fd5b505af41580156111a8573d6000803e3d6000fd5b505050506040513d60208110156111be57600080fd5b505160405160e060020a63bc53a0b902815260206004820181815287516024840152875173__TicTacToeState________________________9363bc53a0b9938a939283926044019185019080838360005b83811015611228578181015183820152602001611210565b50505050905090810190601f1680156112555780820380516001836020036101000a031916815260200191505b509250505060206040518083038186803b15801561127257600080fd5b505af4158015611286573d6000803e3d6000fd5b505050506040513d602081101561129c57600080fd5b50516040805160e060020a63ffffffff861602815261ffff9384166004820152929091166024830152516044808301926020929190829003018186803b1580156112e557600080fd5b505af41580156112f9573d6000803e3d6000fd5b505050506040513d602081101561130f57600080fd5b5051151561131c57600080fd5b60405160e160020a6324fe539702815260206004820181815284516024840152845173__TicTacToeState________________________936349fca72e9387939283926044019185019080838360005b8381101561138457818101518382015260200161136c565b50505050905090810190601f1680156113b15780820380516001836020036101000a031916815260200191505b509250505060206040518083038186803b1580156113ce57600080fd5b505af41580156113e2573d6000803e3d6000fd5b505050506040513d60208110156113f857600080fd5b505160405160e160020a6324fe539702815260206004820181815284516024840152845161ffff9094169373__TicTacToeState________________________936349fca72e9387939283926044019185019080838360005b83811015611469578181015183820152602001611451565b50505050905090810190601f1680156114965780820380516001836020036101000a031916815260200191505b509250505060206040518083038186803b1580156114b357600080fd5b505af41580156114c7573d6000803e3d6000fd5b505050506040513d60208110156114dd57600080fd5b505161ffff16146114ed57600080fd5b60405160e160020a632dab59f702815260206004820181815283516024840152835173__State_________________________________93635b56b3ee9386939283926044019185019080838360005b8381101561155557818101518382015260200161153d565b50505050905090810190601f1680156115825780820380516001836020036101000a031916815260200191505b509250505060206040518083038186803b15801561159f57600080fd5b505af41580156115b3573d6000803e3d6000fd5b505050506040513d60208110156115c957600080fd5b50511515611b3a5760405160e160020a63168f060102815260206004820181815283516024840152835173__TicTacToeState________________________93632d1e0c029386939283926044019185019080838360005b83811015611639578181015183820152602001611621565b50505050905090810190601f1680156116665780820380516001836020036101000a031916815260200191505b509250505060206040518083038186803b15801561168357600080fd5b505af4158015611697573d6000803e3d6000fd5b505050506040513d60208110156116ad57600080fd5b505160405160e060020a634c291ecd02815260206004820181815285516024840152855160029094029373__TicTacToeState________________________93634c291ecd9388939283926044019185019080838360005b8381101561171d578181015183820152602001611705565b50505050905090810190601f16801561174a5780820380516001836020036101000a031916815260200191505b509250505060206040518083038186803b15801561176757600080fd5b505af415801561177b573d6000803e3d6000fd5b505050506040513d602081101561179157600080fd5b505160405160e060020a634c291ecd028152602060048201818152855160248401528551949093019373__TicTacToeState________________________93634c291ecd9387939192839260449092019185019080838360005b838110156118035781810151838201526020016117eb565b50505050905090810190601f1680156118305780820380516001836020036101000a031916815260200191505b509250505060206040518083038186803b15801561184d57600080fd5b505af4158015611861573d6000803e3d6000fd5b505050506040513d602081101561187757600080fd5b50511461188357600080fd5b60405160e160020a63168f060102815260206004820181815283516024840152835173__TicTacToeState________________________93632d1e0c029386939283926044019185019080838360005b838110156118eb5781810151838201526020016118d3565b50505050905090810190601f1680156119185780820380516001836020036101000a031916815260200191505b509250505060206040518083038186803b15801561193557600080fd5b505af4158015611949573d6000803e3d6000fd5b505050506040513d602081101561195f57600080fd5b505160405160e060020a634e77b06302815260206004820181815285516024840152855160029094029373__TicTacToeState________________________93634e77b0639388939283926044019185019080838360005b838110156119cf5781810151838201526020016119b7565b50505050905090810190601f1680156119fc5780820380516001836020036101000a031916815260200191505b509250505060206040518083038186803b158015611a1957600080fd5b505af4158015611a2d573d6000803e3d6000fd5b505050506040513d6020811015611a4357600080fd5b505160405160e060020a634e77b063028152602060048201818152855160248401528551949093039373__TicTacToeState________________________93634e77b0639387939192839260449092019185019080838360005b83811015611ab5578181015183820152602001611a9d565b50505050905090810190601f168015611ae25780820380516001836020036101000a031916815260200191505b509250505060206040518083038186803b158015611aff57600080fd5b505af4158015611b13573d6000803e3d6000fd5b505050506040513d6020811015611b2957600080fd5b505114611b3557600080fd5b612184565b60405160e160020a632dab59f702815260206004820181815283516024840152835173__State_________________________________93635b56b3ee9386939283926044019185019080838360005b83811015611ba2578181015183820152602001611b8a565b50505050905090810190601f168015611bcf5780820380516001836020036101000a031916815260200191505b509250505060206040518083038186803b158015611bec57600080fd5b505af4158015611c00573d6000803e3d6000fd5b505050506040513d6020811015611c1657600080fd5b5051600114156121845760405160e160020a63168f060102815260206004820181815283516024840152835173__TicTacToeState________________________93632d1e0c029386939283926044019185019080838360005b83811015611c88578181015183820152602001611c70565b50505050905090810190601f168015611cb55780820380516001836020036101000a031916815260200191505b509250505060206040518083038186803b158015611cd257600080fd5b505af4158015611ce6573d6000803e3d6000fd5b505050506040513d6020811015611cfc57600080fd5b505160405160e060020a634c291ecd02815260206004820181815285516024840152855160029094029373__TicTacToeState________________________93634c291ecd9388939283926044019185019080838360005b83811015611d6c578181015183820152602001611d54565b50505050905090810190601f168015611d995780820380516001836020036101000a031916815260200191505b509250505060206040518083038186803b158015611db657600080fd5b505af4158015611dca573d6000803e3d6000fd5b505050506040513d6020811015611de057600080fd5b505160405160e060020a634c291ecd028152602060048201818152855160248401528551949093039373__TicTacToeState________________________93634c291ecd9387939192839260449092019185019080838360005b83811015611e52578181015183820152602001611e3a565b50505050905090810190601f168015611e7f5780820380516001836020036101000a031916815260200191505b509250505060206040518083038186803b158015611e9c57600080fd5b505af4158015611eb0573d6000803e3d6000fd5b505050506040513d6020811015611ec657600080fd5b505114611ed257600080fd5b60405160e160020a63168f060102815260206004820181815283516024840152835173__TicTacToeState________________________93632d1e0c029386939283926044019185019080838360005b83811015611f3a578181015183820152602001611f22565b50505050905090810190601f168015611f675780820380516001836020036101000a031916815260200191505b509250505060206040518083038186803b158015611f8457600080fd5b505af4158015611f98573d6000803e3d6000fd5b505050506040513d6020811015611fae57600080fd5b505160405160e060020a634e77b06302815260206004820181815285516024840152855160029094029373__TicTacToeState________________________93634e77b0639388939283926044019185019080838360005b8381101561201e578181015183820152602001612006565b50505050905090810190601f16801561204b5780820380516001836020036101000a031916815260200191505b509250505060206040518083038186803b15801561206857600080fd5b505af415801561207c573d6000803e3d6000fd5b505050506040513d602081101561209257600080fd5b505160405160e060020a634e77b063028152602060048201818152855160248401528551949093019373__TicTacToeState________________________93634e77b0639387939192839260449092019185019080838360005b838110156121045781810151838201526020016120ec565b50505050905090810190601f1680156121315780820380516001836020036101000a031916815260200191505b509250505060206040518083038186803b15801561214e57600080fd5b505af4158015612162573d6000803e3d6000fd5b505050506040513d602081101561217857600080fd5b50511461218457600080fd5b5050565b60405160e060020a63bc53a0b902815260206004820181815283516024840152835173__TicTacToeHelpers______________________93634b45b73f9373__TicTacToeState________________________9363bc53a0b993889391928392604401919085019080838360005b8381101561220e5781810151838201526020016121f6565b50505050905090810190601f16801561223b5780820380516001836020036101000a031916815260200191505b509250505060206040518083038186803b15801561225857600080fd5b505af415801561226c573d6000803e3d6000fd5b505050506040513d602081101561228257600080fd5b50516040805160e060020a63ffffffff851602815261ffff9092166004830152516024808301926020929190829003018186803b1580156122c257600080fd5b505af41580156122d6573d6000803e3d6000fd5b505050506040513d60208110156122ec57600080fd5b505115156110c457600080fd5b60405160e160020a6324fe539702815260206004820181815283516024840152835173__TicTacToeHelpers______________________93630fe61fb59373__TicTacToeState________________________936349fca72e93889391928392604401919085019080838360005b8381101561237f578181015183820152602001612367565b50505050905090810190601f1680156123ac5780820380516001836020036101000a031916815260200191505b509250505060206040518083038186803b1580156123c957600080fd5b505af41580156123dd573d6000803e3d6000fd5b505050506040513d60208110156123f357600080fd5b505160405160e160020a6324fe539702815260206004820181815287516024840152875173__TicTacToeState________________________936349fca72e938a939283926044019185019080838360005b8381101561245d578181015183820152602001612445565b50505050905090810190601f16801561248a5780820380516001836020036101000a031916815260200191505b509250505060206040518083038186803b1580156124a757600080fd5b505af41580156124bb573d6000803e3d6000fd5b505050506040513d60208110156124d157600080fd5b50516040805160e060020a63ffffffff861602815261ffff9384166004820152929091166024830152516044808301926020929190829003018186803b15801561251a57600080fd5b505af415801561252e573d6000803e3d6000fd5b505050506040513d602081101561254457600080fd5b5051151561255157600080fd5b60405160e060020a63bc53a0b902815260206004820181815284516024840152845173__TicTacToeState________________________9363bc53a0b99387939283926044019185019080838360005b838110156125b95781810151838201526020016125a1565b50505050905090810190601f1680156125e65780820380516001836020036101000a031916815260200191505b509250505060206040518083038186803b15801561260357600080fd5b505af4158015612617573d6000803e3d6000fd5b505050506040513d602081101561262d57600080fd5b505160405160e060020a63bc53a0b902815260206004820181815284516024840152845161ffff9094169373__TicTacToeState________________________9363bc53a0b993879392839260440191850190808383600083811015611469578181015183820152602001611451565b60405160e160020a6324fe539702815260206004820181815283516024840152835173__TicTacToeHelpers______________________93634b45b73f9373__TicTacToeState________________________936349fca72e93889391928392604401919085019080838360005b8381101561272357818101518382015260200161270b565b50505050905090810190601f1680156127505780820380516001836020036101000a031916815260200191505b509250505060206040518083038186803b15801561276d57600080fd5b505af4158015612781573d6000803e3d6000fd5b505050506040513d602081101561279757600080fd5b50516040805160e060020a63ffffffff851602815261ffff9092166004830152516024808301926020929190829003018186803b1580156127d757600080fd5b505af41580156127eb573d6000803e3d6000fd5b505050506040513d602081101561280157600080fd5b505115156122f957600080fd5b60405160e060020a63bc53a0b902815260206004820181815283516024840152835173__TicTacToeHelpers______________________9363f94d075a9373__TicTacToeState________________________9363bc53a0b993889391928392604401919085019080838360005b8381101561289457818101518382015260200161287c565b50505050905090810190601f1680156128c15780820380516001836020036101000a031916815260200191505b509250505060206040518083038186803b1580156128de57600080fd5b505af41580156128f2573d6000803e3d6000fd5b505050506040513d602081101561290857600080fd5b505160405160e160020a6324fe539702815260206004820181815286516024840152865173__TicTacToeState________________________936349fca72e9389939283926044019185019080838360005b8381101561297257818101518382015260200161295a565b50505050905090810190601f16801561299f5780820380516001836020036101000a031916815260200191505b509250505060206040518083038186803b1580156129bc57600080fd5b505af41580156129d0573d6000803e3d6000fd5b505050506040513d60208110156129e657600080fd5b50516040805160e060020a63ffffffff861602815261ffff9384166004820152929091166024830152516044808301926020929190829003018186803b158015612a2f57600080fd5b505af4158015612a43573d6000803e3d6000fd5b505050506040513d6020811015612a5957600080fd5b50511515612a6657600080fd5b60405160e160020a632dab59f702815260206004820181815283516024840152835173__State_________________________________93635b56b3ee9386939283926044019185019080838360005b83811015612ace578181015183820152602001612ab6565b50505050905090810190601f168015612afb5780820380516001836020036101000a031916815260200191505b509250505060206040518083038186803b158015612b1857600080fd5b505af4158015612b2c573d6000803e3d6000fd5b505050506040513d6020811015612b4257600080fd5b505115156130a75760405160e160020a63168f060102815260206004820181815283516024840152835173__TicTacToeState________________________93632d1e0c029386939283926044019185019080838360005b83811015612bb2578181015183820152602001612b9a565b50505050905090810190601f168015612bdf5780820380516001836020036101000a031916815260200191505b509250505060206040518083038186803b158015612bfc57600080fd5b505af4158015612c10573d6000803e3d6000fd5b505050506040513d6020811015612c2657600080fd5b505160405160e060020a634c291ecd02815260206004820181815285516024840152855173__TicTacToeState________________________93634c291ecd9388939283926044019185019080838360005b83811015612c90578181015183820152602001612c78565b50505050905090810190601f168015612cbd5780820380516001836020036101000a031916815260200191505b509250505060206040518083038186803b158015612cda57600080fd5b505af4158015612cee573d6000803e3d6000fd5b505050506040513d6020811015612d0457600080fd5b505160405160e060020a634c291ecd028152602060048201818152855160248401528551949093019373__TicTacToeState________________________93634c291ecd9387939192839260449092019185019080838360005b83811015612d76578181015183820152602001612d5e565b50505050905090810190601f168015612da35780820380516001836020036101000a031916815260200191505b509250505060206040518083038186803b158015612dc057600080fd5b505af4158015612dd4573d6000803e3d6000fd5b505050506040513d6020811015612dea57600080fd5b505114612df657600080fd5b60405160e160020a63168f060102815260206004820181815283516024840152835173__TicTacToeState________________________93632d1e0c029386939283926044019185019080838360005b83811015612e5e578181015183820152602001612e46565b50505050905090810190601f168015612e8b5780820380516001836020036101000a031916815260200191505b509250505060206040518083038186803b158015612ea857600080fd5b505af4158015612ebc573d6000803e3d6000fd5b505050506040513d6020811015612ed257600080fd5b505160405160e060020a634e77b06302815260206004820181815285516024840152855173__TicTacToeState________________________93634e77b0639388939283926044019185019080838360005b83811015612f3c578181015183820152602001612f24565b50505050905090810190601f168015612f695780820380516001836020036101000a031916815260200191505b509250505060206040518083038186803b158015612f8657600080fd5b505af4158015612f9a573d6000803e3d6000fd5b505050506040513d6020811015612fb057600080fd5b505160405160e060020a634e77b063028152602060048201818152855160248401528551949093039373__TicTacToeState________________________93634e77b0639387939192839260449092019185019080838360005b8381101561302257818101518382015260200161300a565b50505050905090810190601f16801561304f5780820380516001836020036101000a031916815260200191505b509250505060206040518083038186803b15801561306c57600080fd5b505af4158015613080573d6000803e3d6000fd5b505050506040513d602081101561309657600080fd5b5051146130a257600080fd5b6136e5565b60405160e160020a632dab59f702815260206004820181815283516024840152835173__State_________________________________93635b56b3ee9386939283926044019185019080838360005b8381101561310f5781810151838201526020016130f7565b50505050905090810190601f16801561313c5780820380516001836020036101000a031916815260200191505b509250505060206040518083038186803b15801561315957600080fd5b505af415801561316d573d6000803e3d6000fd5b505050506040513d602081101561318357600080fd5b5051600114156136e55760405160e160020a63168f060102815260206004820181815283516024840152835173__TicTacToeState________________________93632d1e0c029386939283926044019185019080838360005b838110156131f55781810151838201526020016131dd565b50505050905090810190601f1680156132225780820380516001836020036101000a031916815260200191505b509250505060206040518083038186803b15801561323f57600080fd5b505af4158015613253573d6000803e3d6000fd5b505050506040513d602081101561326957600080fd5b505160405160e060020a634c291ecd02815260206004820181815285516024840152855173__TicTacToeState________________________93634c291ecd9388939283926044019185019080838360005b838110156132d35781810151838201526020016132bb565b50505050905090810190601f1680156133005780820380516001836020036101000a031916815260200191505b509250505060206040518083038186803b15801561331d57600080fd5b505af4158015613331573d6000803e3d6000fd5b505050506040513d602081101561334757600080fd5b505160405160e060020a634c291ecd028152602060048201818152855160248401528551949093039373__TicTacToeState________________________93634c291ecd9387939192839260449092019185019080838360005b838110156133b95781810151838201526020016133a1565b50505050905090810190601f1680156133e65780820380516001836020036101000a031916815260200191505b509250505060206040518083038186803b15801561340357600080fd5b505af4158015613417573d6000803e3d6000fd5b505050506040513d602081101561342d57600080fd5b50511461343957600080fd5b60405160e160020a63168f060102815260206004820181815283516024840152835173__TicTacToeState________________________93632d1e0c029386939283926044019185019080838360005b838110156134a1578181015183820152602001613489565b50505050905090810190601f1680156134ce5780820380516001836020036101000a031916815260200191505b509250505060206040518083038186803b1580156134eb57600080fd5b505af41580156134ff573d6000803e3d6000fd5b505050506040513d602081101561351557600080fd5b505160405160e060020a634e77b06302815260206004820181815285516024840152855173__TicTacToeState________________________93634e77b0639388939283926044019185019080838360005b8381101561357f578181015183820152602001613567565b50505050905090810190601f1680156135ac5780820380516001836020036101000a031916815260200191505b509250505060206040518083038186803b1580156135c957600080fd5b505af41580156135dd573d6000803e3d6000fd5b505050506040513d60208110156135f357600080fd5b505160405160e060020a634e77b063028152602060048201818152855160248401528551949093019373__TicTacToeState________________________93634e77b0639387939192839260449092019185019080838360005b8381101561366557818101518382015260200161364d565b50505050905090810190601f1680156136925780820380516001836020036101000a031916815260200191505b509250505060206040518083038186803b1580156136af57600080fd5b505af41580156136c3573d6000803e3d6000fd5b505050506040513d60208110156136d957600080fd5b5051146136e557600080fd5b60405160e160020a6324fe539702815260206004820181815283516024840152835173__TicTacToeHelpers______________________93630fe61fb59373__TicTacToeState________________________936349fca72e93889391928392604401919085019080838360005b8381101561376b578181015183820152602001613753565b50505050905090810190601f1680156137985780820380516001836020036101000a031916815260200191505b509250505060206040518083038186803b1580156137b557600080fd5b505af41580156137c9573d6000803e3d6000fd5b505050506040513d60208110156137df57600080fd5b505160405160e160020a6324fe539702815260206004820181815287516024840152875173__TicTacToeState________________________936349fca72e938a939283926044019185019080838360005b83811015613849578181015183820152602001613831565b50505050905090810190601f1680156138765780820380516001836020036101000a031916815260200191505b509250505060206040518083038186803b15801561389357600080fd5b505af41580156138a7573d6000803e3d6000fd5b505050506040513d60208110156138bd57600080fd5b50516040805160e060020a63ffffffff861602815261ffff9384166004820152929091166024830152516044808301926020929190829003018186803b15801561390657600080fd5b505af415801561391a573d6000803e3d6000fd5b505050506040513d602081101561393057600080fd5b5051151561393d57600080fd5b60405160e060020a63bc53a0b902815260206004820181815284516024840152845173__TicTacToeState________________________9363bc53a0b99387939283926044019185019080838360005b838110156139a557818101518382015260200161398d565b50505050905090810190601f1680156139d25780820380516001836020036101000a031916815260200191505b509250505060206040518083038186803b1580156139ef57600080fd5b505af4158015613a03573d6000803e3d6000fd5b505050506040513d6020811015613a1957600080fd5b505160405160e060020a63bc53a0b902815260206004820181815284516024840152845161ffff9094169373__TicTacToeState________________________9363bc53a0b99387939283926044019185019080838360005b83811015613a8a578181015183820152602001613a72565b50505050905090810190601f168015613ab75780820380516001836020036101000a031916815260200191505b509250505060206040518083038186803b158015613ad457600080fd5b505af4158015613ae8573d6000803e3d6000fd5b505050506040513d6020811015613afe57600080fd5b505161ffff161461218457600080fd5b60405160e060020a634c291ecd02815260206004820181815284516024840152845173__TicTacToeState________________________93634c291ecd9387939283926044019185019080838360005b83811015613b76578181015183820152602001613b5e565b50505050905090810190601f168015613ba35780820380516001836020036101000a031916815260200191505b509250505060206040518083038186803b158015613bc057600080fd5b505af4158015613bd4573d6000803e3d6000fd5b505050506040513d6020811015613bea57600080fd5b505160405160e060020a634c291ecd02815260206004820181815284516024840152845173__TicTacToeState________________________93634c291ecd9387939283926044019185019080838360005b83811015613c54578181015183820152602001613c3c565b50505050905090810190601f168015613c815780820380516001836020036101000a031916815260200191505b509250505060206040518083038186803b158015613c9e57600080fd5b505af4158015613cb2573d6000803e3d6000fd5b505050506040513d6020811015613cc857600080fd5b505114613cd457600080fd5b60405160e060020a634e77b06302815260206004820181815284516024840152845173__TicTacToeState________________________93634e77b0639387939283926044019185019080838360005b83811015613d3c578181015183820152602001613d24565b50505050905090810190601f168015613d695780820380516001836020036101000a031916815260200191505b509250505060206040518083038186803b158015613d8657600080fd5b505af4158015613d9a573d6000803e3d6000fd5b505050506040513d6020811015613db057600080fd5b505160405160e060020a634e77b06302815260206004820181815284516024840152845173__TicTacToeState________________________93634e77b063938793928392604401918501908083836000838110156121045781810151838201526020016120ec565b60405160e160020a63168f060102815260206004820181815284516024840152845173__TicTacToeState________________________93632d1e0c029387939283926044019185019080838360005b83811015613e81578181015183820152602001613e69565b50505050905090810190601f168015613eae5780820380516001836020036101000a031916815260200191505b509250505060206040518083038186803b158015613ecb57600080fd5b505af4158015613edf573d6000803e3d6000fd5b505050506040513d6020811015613ef557600080fd5b505160405160e160020a63168f060102815260206004820181815284516024840152845173__TicTacToeState________________________93632d1e0c029387939283926044019185019080838360005b83811015613f5f578181015183820152602001613f47565b50505050905090810190601f168015613f8c5780820380516001836020036101000a031916815260200191505b509250505060206040518083038186803b158015613fa957600080fd5b505af4158015613fbd573d6000803e3d6000fd5b505050506040513d6020811015613fd357600080fd5b505114613b0e57600080fd5b60405160e060020a63bc53a0b902815260206004820181815283516024840152835173__TicTacToeState________________________9363bc53a0b99386939283926044019185019080838360005b8381101561404757818101518382015260200161402f565b50505050905090810190601f1680156140745780820380516001836020036101000a031916815260200191505b509250505060206040518083038186803b15801561409157600080fd5b505af41580156140a5573d6000803e3d6000fd5b505050506040513d60208110156140bb57600080fd5b505161ffff16156140cb57600080fd5b60405160e160020a6324fe539702815260206004820181815283516024840152835173__TicTacToeHelpers______________________93630fe61fb59373__TicTacToeState________________________936349fca72e93889391928392604401919085019080838360005b83811015614151578181015183820152602001614139565b50505050905090810190601f16801561417e5780820380516001836020036101000a031916815260200191505b509250505060206040518083038186803b15801561419b57600080fd5b505af41580156141af573d6000803e3d6000fd5b505050506040513d60208110156141c557600080fd5b50516040805160e060020a63ffffffff851602815261ffff909216600483015260006024830152516044808301926020929190829003018186803b15801561420c57600080fd5b505af4158015614220573d6000803e3d6000fd5b505050506040513d602081101561423657600080fd5b5051151561424357600080fd5b60405160e160020a63168f060102815260206004820181815284516024840152845173__TicTacToeState________________________93632d1e0c029387939283926044019185019080838360005b838110156142ab578181015183820152602001614293565b50505050905090810190601f1680156142d85780820380516001836020036101000a031916815260200191505b509250505060206040518083038186803b1580156142f557600080fd5b505af4158015614309573d6000803e3d6000fd5b505050506040513d602081101561431f57600080fd5b505160405160e160020a63168f060102815260206004820181815284516024840152845173__TicTacToeState________________________93632d1e0c029387939283926044019185019080838360005b83811015614389578181015183820152602001614371565b50505050905090810190601f1680156143b65780820380516001836020036101000a031916815260200191505b509250505060206040518083038186803b1580156143d357600080fd5b505af41580156143e7573d6000803e3d6000fd5b505050506040513d60208110156143fd57600080fd5b50511461440957600080fd5b60405160e160020a632dab59f702815260206004820181815283516024840152835173__State_________________________________93635b56b3ee9386939283926044019185019080838360005b83811015614471578181015183820152602001614459565b50505050905090810190601f16801561449e5780820380516001836020036101000a031916815260200191505b509250505060206040518083038186803b1580156144bb57600080fd5b505af41580156144cf573d6000803e3d6000fd5b505050506040513d60208110156144e557600080fd5b505115156148de5760405160e160020a63168f060102815260206004820181815283516024840152835173__TicTacToeState________________________93632d1e0c029386939283926044019185019080838360005b8381101561455557818101518382015260200161453d565b50505050905090810190601f1680156145825780820380516001836020036101000a031916815260200191505b509250505060206040518083038186803b15801561459f57600080fd5b505af41580156145b3573d6000803e3d6000fd5b505050506040513d60208110156145c957600080fd5b505160405160e060020a634c291ecd02815260206004820181815285516024840152855173__TicTacToeState________________________93634c291ecd9388939283926044019185019080838360005b8381101561463357818101518382015260200161461b565b50505050905090810190601f1680156146605780820380516001836020036101000a031916815260200191505b509250505060206040518083038186803b15801561467d57600080fd5b505af4158015614691573d6000803e3d6000fd5b505050506040513d60208110156146a757600080fd5b505160405160e060020a634c291ecd028152602060048201818152855160248401528551949093019373__TicTacToeState________________________93634c291ecd9387939192839260449092019185019080838360005b83811015614719578181015183820152602001614701565b50505050905090810190601f1680156147465780820380516001836020036101000a031916815260200191505b509250505060206040518083038186803b15801561476357600080fd5b505af4158015614777573d6000803e3d6000fd5b505050506040513d602081101561478d57600080fd5b50511461479957600080fd5b60405160e160020a63168f060102815260206004820181815283516024840152835173__TicTacToeState________________________93632d1e0c029386939283926044019185019080838360005b838110156148015781810151838201526020016147e9565b50505050905090810190601f16801561482e5780820380516001836020036101000a031916815260200191505b509250505060206040518083038186803b15801561484b57600080fd5b505af415801561485f573d6000803e3d6000fd5b505050506040513d602081101561487557600080fd5b505160405160e060020a634e77b06302815260206004820181815285516024840152855173__TicTacToeState________________________93634e77b063938893928392604401918501908083836000838110156119cf5781810151838201526020016119b7565b60405160e160020a632dab59f702815260206004820181815283516024840152835173__State_________________________________93635b56b3ee9386939283926044019185019080838360005b8381101561494657818101518382015260200161492e565b50505050905090810190601f1680156149735780820380516001836020036101000a031916815260200191505b509250505060206040518083038186803b15801561499057600080fd5b505af41580156149a4573d6000803e3d6000fd5b505050506040513d60208110156149ba57600080fd5b5051600114156121845760405160e160020a63168f060102815260206004820181815283516024840152835173__TicTacToeState________________________93632d1e0c029386939283926044019185019080838360005b83811015614a2c578181015183820152602001614a14565b50505050905090810190601f168015614a595780820380516001836020036101000a031916815260200191505b509250505060206040518083038186803b158015614a7657600080fd5b505af4158015614a8a573d6000803e3d6000fd5b505050506040513d6020811015614aa057600080fd5b505160405160e060020a634c291ecd02815260206004820181815285516024840152855173__TicTacToeState________________________93634c291ecd9388939283926044019185019080838360005b83811015614b0a578181015183820152602001614af2565b50505050905090810190601f168015614b375780820380516001836020036101000a031916815260200191505b509250505060206040518083038186803b158015614b5457600080fd5b505af4158015614b68573d6000803e3d6000fd5b505050506040513d6020811015614b7e57600080fd5b505160405160e060020a634c291ecd028152602060048201818152855160248401528551949093039373__TicTacToeState________________________93634c291ecd9387939192839260449092019185019080838360005b83811015614bf0578181015183820152602001614bd8565b50505050905090810190601f168015614c1d5780820380516001836020036101000a031916815260200191505b509250505060206040518083038186803b158015614c3a57600080fd5b505af4158015614c4e573d6000803e3d6000fd5b505050506040513d6020811015614c6457600080fd5b505114614c7057600080fd5b60405160e160020a63168f060102815260206004820181815283516024840152835173__TicTacToeState________________________93632d1e0c029386939283926044019185019080838360005b83811015614cd8578181015183820152602001614cc0565b50505050905090810190601f168015614d055780820380516001836020036101000a031916815260200191505b509250505060206040518083038186803b158015614d2257600080fd5b505af4158015614d36573d6000803e3d6000fd5b505050506040513d6020811015614d4c57600080fd5b505160405160e060020a634e77b06302815260206004820181815285516024840152855173__TicTacToeState________________________93634e77b0639388939283926044019185019080838360008381101561201e5781810151838201526020016120065600a165627a7a723058203fb5b5af52693089abfe0f0bba8df5dc66fa6f5a97ad3ade255ea9b141a150310029"
}