{
  "contractName": "Commitment",
  "abi": [
    {
      "constant": true,
      "inputs": [
        {
          "components": [
            {
              "name": "channelType",
              "type": "address"
            },
            {
              "name": "nonce",
              "type": "uint32"
            },
            {
              "name": "participants",
              "type": "address[]"
            },
            {
              "name": "commitmentType",
              "type": "uint8"
            },
            {
              "name": "turnNum",
              "type": "uint32"
            },
            {
              "name": "commitmentCount",
              "type": "uint32"
            },
            {
              "name": "destination",
              "type": "address[]"
            },
            {
              "name": "allocation",
              "type": "uint256[]"
            },
            {
              "name": "appAttributes",
              "type": "bytes"
            }
          ],
          "name": "self",
          "type": "tuple"
        }
      ],
      "name": "isPreFundSetup",
      "outputs": [
        {
          "name": "",
          "type": "bool"
        }
      ],
      "payable": false,
      "stateMutability": "pure",
      "type": "function",
      "signature": "0x761b8e41"
    },
    {
      "constant": true,
      "inputs": [
        {
          "components": [
            {
              "name": "channelType",
              "type": "address"
            },
            {
              "name": "nonce",
              "type": "uint32"
            },
            {
              "name": "participants",
              "type": "address[]"
            },
            {
              "name": "commitmentType",
              "type": "uint8"
            },
            {
              "name": "turnNum",
              "type": "uint32"
            },
            {
              "name": "commitmentCount",
              "type": "uint32"
            },
            {
              "name": "destination",
              "type": "address[]"
            },
            {
              "name": "allocation",
              "type": "uint256[]"
            },
            {
              "name": "appAttributes",
              "type": "bytes"
            }
          ],
          "name": "self",
          "type": "tuple"
        }
      ],
      "name": "isPostFundSetup",
      "outputs": [
        {
          "name": "",
          "type": "bool"
        }
      ],
      "payable": false,
      "stateMutability": "pure",
      "type": "function",
      "signature": "0x510c2d29"
    },
    {
      "constant": true,
      "inputs": [
        {
          "components": [
            {
              "name": "channelType",
              "type": "address"
            },
            {
              "name": "nonce",
              "type": "uint32"
            },
            {
              "name": "participants",
              "type": "address[]"
            },
            {
              "name": "commitmentType",
              "type": "uint8"
            },
            {
              "name": "turnNum",
              "type": "uint32"
            },
            {
              "name": "commitmentCount",
              "type": "uint32"
            },
            {
              "name": "destination",
              "type": "address[]"
            },
            {
              "name": "allocation",
              "type": "uint256[]"
            },
            {
              "name": "appAttributes",
              "type": "bytes"
            }
          ],
          "name": "self",
          "type": "tuple"
        }
      ],
      "name": "isApp",
      "outputs": [
        {
          "name": "",
          "type": "bool"
        }
      ],
      "payable": false,
      "stateMutability": "pure",
      "type": "function",
      "signature": "0x04aa78ba"
    },
    {
      "constant": true,
      "inputs": [
        {
          "components": [
            {
              "name": "channelType",
              "type": "address"
            },
            {
              "name": "nonce",
              "type": "uint32"
            },
            {
              "name": "participants",
              "type": "address[]"
            },
            {
              "name": "commitmentType",
              "type": "uint8"
            },
            {
              "name": "turnNum",
              "type": "uint32"
            },
            {
              "name": "commitmentCount",
              "type": "uint32"
            },
            {
              "name": "destination",
              "type": "address[]"
            },
            {
              "name": "allocation",
              "type": "uint256[]"
            },
            {
              "name": "appAttributes",
              "type": "bytes"
            }
          ],
          "name": "self",
          "type": "tuple"
        }
      ],
      "name": "isConclude",
      "outputs": [
        {
          "name": "",
          "type": "bool"
        }
      ],
      "payable": false,
      "stateMutability": "pure",
      "type": "function",
      "signature": "0xcb2ef1cc"
    },
    {
      "constant": true,
      "inputs": [
        {
          "components": [
            {
              "name": "channelType",
              "type": "address"
            },
            {
              "name": "nonce",
              "type": "uint32"
            },
            {
              "name": "participants",
              "type": "address[]"
            },
            {
              "name": "commitmentType",
              "type": "uint8"
            },
            {
              "name": "turnNum",
              "type": "uint32"
            },
            {
              "name": "commitmentCount",
              "type": "uint32"
            },
            {
              "name": "destination",
              "type": "address[]"
            },
            {
              "name": "allocation",
              "type": "uint256[]"
            },
            {
              "name": "appAttributes",
              "type": "bytes"
            }
          ],
          "name": "_commitment",
          "type": "tuple"
        }
      ],
      "name": "channelId",
      "outputs": [
        {
          "name": "",
          "type": "address"
        }
      ],
      "payable": false,
      "stateMutability": "pure",
      "type": "function",
      "signature": "0x084d3521"
    },
    {
      "constant": true,
      "inputs": [
        {
          "components": [
            {
              "name": "channelType",
              "type": "address"
            },
            {
              "name": "nonce",
              "type": "uint32"
            },
            {
              "name": "participants",
              "type": "address[]"
            },
            {
              "name": "commitmentType",
              "type": "uint8"
            },
            {
              "name": "turnNum",
              "type": "uint32"
            },
            {
              "name": "commitmentCount",
              "type": "uint32"
            },
            {
              "name": "destination",
              "type": "address[]"
            },
            {
              "name": "allocation",
              "type": "uint256[]"
            },
            {
              "name": "appAttributes",
              "type": "bytes"
            }
          ],
          "name": "_commitment",
          "type": "tuple"
        }
      ],
      "name": "mover",
      "outputs": [
        {
          "name": "",
          "type": "address"
        }
      ],
      "payable": false,
      "stateMutability": "pure",
      "type": "function",
      "signature": "0xf180491d"
    },
    {
      "constant": true,
      "inputs": [
        {
          "components": [
            {
              "name": "channelType",
              "type": "address"
            },
            {
              "name": "nonce",
              "type": "uint32"
            },
            {
              "name": "participants",
              "type": "address[]"
            },
            {
              "name": "commitmentType",
              "type": "uint8"
            },
            {
              "name": "turnNum",
              "type": "uint32"
            },
            {
              "name": "commitmentCount",
              "type": "uint32"
            },
            {
              "name": "destination",
              "type": "address[]"
            },
            {
              "name": "allocation",
              "type": "uint256[]"
            },
            {
              "name": "appAttributes",
              "type": "bytes"
            }
          ],
          "name": "_commitment",
          "type": "tuple"
        },
        {
          "name": "_v",
          "type": "uint8"
        },
        {
          "name": "_r",
          "type": "bytes32"
        },
        {
          "name": "_s",
          "type": "bytes32"
        }
      ],
      "name": "requireSignature",
      "outputs": [],
      "payable": false,
      "stateMutability": "pure",
      "type": "function",
      "signature": "0x6cb1f6e8"
    },
    {
      "constant": true,
      "inputs": [
        {
          "components": [
            {
              "name": "channelType",
              "type": "address"
            },
            {
              "name": "nonce",
              "type": "uint32"
            },
            {
              "name": "participants",
              "type": "address[]"
            },
            {
              "name": "commitmentType",
              "type": "uint8"
            },
            {
              "name": "turnNum",
              "type": "uint32"
            },
            {
              "name": "commitmentCount",
              "type": "uint32"
            },
            {
              "name": "destination",
              "type": "address[]"
            },
            {
              "name": "allocation",
              "type": "uint256[]"
            },
            {
              "name": "appAttributes",
              "type": "bytes"
            }
          ],
          "name": "_commitment",
          "type": "tuple"
        },
        {
          "name": "_v",
          "type": "uint8[]"
        },
        {
          "name": "_r",
          "type": "bytes32[]"
        },
        {
          "name": "_s",
          "type": "bytes32[]"
        }
      ],
      "name": "requireFullySigned",
      "outputs": [],
      "payable": false,
      "stateMutability": "pure",
      "type": "function",
      "signature": "0x020a3a58"
    },
    {
      "constant": true,
      "inputs": [
        {
          "components": [
            {
              "name": "channelType",
              "type": "address"
            },
            {
              "name": "nonce",
              "type": "uint32"
            },
            {
              "name": "participants",
              "type": "address[]"
            },
            {
              "name": "commitmentType",
              "type": "uint8"
            },
            {
              "name": "turnNum",
              "type": "uint32"
            },
            {
              "name": "commitmentCount",
              "type": "uint32"
            },
            {
              "name": "destination",
              "type": "address[]"
            },
            {
              "name": "allocation",
              "type": "uint256[]"
            },
            {
              "name": "appAttributes",
              "type": "bytes"
            }
          ],
          "name": "_commitment",
          "type": "tuple"
        },
        {
          "components": [
            {
              "name": "channelType",
              "type": "address"
            },
            {
              "name": "nonce",
              "type": "uint32"
            },
            {
              "name": "participants",
              "type": "address[]"
            },
            {
              "name": "commitmentType",
              "type": "uint8"
            },
            {
              "name": "turnNum",
              "type": "uint32"
            },
            {
              "name": "commitmentCount",
              "type": "uint32"
            },
            {
              "name": "destination",
              "type": "address[]"
            },
            {
              "name": "allocation",
              "type": "uint256[]"
            },
            {
              "name": "appAttributes",
              "type": "bytes"
            }
          ],
          "name": "_otherCommitment",
          "type": "tuple"
        }
      ],
      "name": "appAttributesEqual",
      "outputs": [
        {
          "name": "",
          "type": "bool"
        }
      ],
      "payable": false,
      "stateMutability": "pure",
      "type": "function",
      "signature": "0x8806b8a7"
    },
    {
      "constant": true,
      "inputs": [
        {
          "components": [
            {
              "name": "channelType",
              "type": "address"
            },
            {
              "name": "nonce",
              "type": "uint32"
            },
            {
              "name": "participants",
              "type": "address[]"
            },
            {
              "name": "commitmentType",
              "type": "uint8"
            },
            {
              "name": "turnNum",
              "type": "uint32"
            },
            {
              "name": "commitmentCount",
              "type": "uint32"
            },
            {
              "name": "destination",
              "type": "address[]"
            },
            {
              "name": "allocation",
              "type": "uint256[]"
            },
            {
              "name": "appAttributes",
              "type": "bytes"
            }
          ],
          "name": "_commitment",
          "type": "tuple"
        },
        {
          "components": [
            {
              "name": "channelType",
              "type": "address"
            },
            {
              "name": "nonce",
              "type": "uint32"
            },
            {
              "name": "participants",
              "type": "address[]"
            },
            {
              "name": "commitmentType",
              "type": "uint8"
            },
            {
              "name": "turnNum",
              "type": "uint32"
            },
            {
              "name": "commitmentCount",
              "type": "uint32"
            },
            {
              "name": "destination",
              "type": "address[]"
            },
            {
              "name": "allocation",
              "type": "uint256[]"
            },
            {
              "name": "appAttributes",
              "type": "bytes"
            }
          ],
          "name": "_otherCommitment",
          "type": "tuple"
        }
      ],
      "name": "allocationsEqual",
      "outputs": [
        {
          "name": "",
          "type": "bool"
        }
      ],
      "payable": false,
      "stateMutability": "pure",
      "type": "function",
      "signature": "0xa5885bbd"
    },
    {
      "constant": true,
      "inputs": [
        {
          "components": [
            {
              "name": "channelType",
              "type": "address"
            },
            {
              "name": "nonce",
              "type": "uint32"
            },
            {
              "name": "participants",
              "type": "address[]"
            },
            {
              "name": "commitmentType",
              "type": "uint8"
            },
            {
              "name": "turnNum",
              "type": "uint32"
            },
            {
              "name": "commitmentCount",
              "type": "uint32"
            },
            {
              "name": "destination",
              "type": "address[]"
            },
            {
              "name": "allocation",
              "type": "uint256[]"
            },
            {
              "name": "appAttributes",
              "type": "bytes"
            }
          ],
          "name": "_commitment",
          "type": "tuple"
        },
        {
          "components": [
            {
              "name": "channelType",
              "type": "address"
            },
            {
              "name": "nonce",
              "type": "uint32"
            },
            {
              "name": "participants",
              "type": "address[]"
            },
            {
              "name": "commitmentType",
              "type": "uint8"
            },
            {
              "name": "turnNum",
              "type": "uint32"
            },
            {
              "name": "commitmentCount",
              "type": "uint32"
            },
            {
              "name": "destination",
              "type": "address[]"
            },
            {
              "name": "allocation",
              "type": "uint256[]"
            },
            {
              "name": "appAttributes",
              "type": "bytes"
            }
          ],
          "name": "_otherCommitment",
          "type": "tuple"
        }
      ],
      "name": "destinationsEqual",
      "outputs": [
        {
          "name": "",
          "type": "bool"
        }
      ],
      "payable": false,
      "stateMutability": "pure",
      "type": "function",
      "signature": "0x9963c401"
    }
  ],
  "bytecode": "0x6115ac610030600b82828239805160001a6073146000811461002057610022565bfe5b5030600052607381538281f3fe73000000000000000000000000000000000000000030146080604052600436106100d0576000357c0100000000000000000000000000000000000000000000000000000000900480637679a8e4116100985780637679a8e4146101b1578063b962f542146101e1578063bfea929814610211578063c2a67cff14610241578063d30162b914610271578063e647226b146102a1576100d0565b8063361e8236146100d55780635bf1ccdf1461010557806361aa2c5d146101215780636dc7fc8d1461015157806373dca1f214610181575b600080fd5b6100ef60048036036100ea9190810190610ed0565b6102bd565b6040516100fc91906112ac565b60405180910390f35b61011f600480360361011a9190810190610e0d565b610378565b005b61013b60048036036101369190810190610dcc565b610499565b6040516101489190611291565b60405180910390f35b61016b60048036036101669190810190610ed0565b6104d8565b60405161017891906112ac565b60405180910390f35b61019b60048036036101969190810190610dcc565b6105b3565b6040516101a891906112ac565b60405180910390f35b6101cb60048036036101c69190810190610dcc565b6105d1565b6040516101d891906112ac565b60405180910390f35b6101fb60048036036101f69190810190610dcc565b6105ef565b60405161020891906112ac565b60405180910390f35b61022b60048036036102269190810190610dcc565b61060e565b60405161023891906112ac565b60405180910390f35b61025b60048036036102569190810190610dcc565b61062d565b6040516102689190611291565b60405180910390f35b61028b60048036036102869190810190610ed0565b61071d565b60405161029891906112ac565b60405180910390f35b6102bb60048036036102b69190810190610f3c565b6107d8565b005b60008160c0015160405160200180828051906020019060200280838360005b838110156102f75780820151818401526020810190506102dc565b50505050905001915050604051602081830303815290604052805190602001208360c0015160405160200180828051906020019060200280838360005b8381101561034f578082015181840152602081019050610334565b505050509050019150506040516020818303038152906040528051906020012014905092915050565b60008090505b846040015151811015610492576103fb8560405160200161039f9190611307565b60405160208183030381529060405285838151811015156103bc57fe5b9060200190602002015185848151811015156103d457fe5b9060200190602002015185858151811015156103ec57fe5b90602001906020020151610880565b73ffffffffffffffffffffffffffffffffffffffff1685604001518281518110151561042357fe5b9060200190602002015173ffffffffffffffffffffffffffffffffffffffff16141515610485576040517f08c379a000000000000000000000000000000000000000000000000000000000815260040161047c906112c7565b60405180910390fd5b808060010191505061037e565b5050505050565b60008160400151826040015151836080015163ffffffff168115156104ba57fe5b068151811015156104c757fe5b906020019060200201519050919050565b60008161010001516040518082805190602001908083835b60208310151561051557805182526020820191506020810190506020830392506104f0565b6001836020036101000a03801982511681845116808217855250505050505090500191505060405180910390208361010001516040518082805190602001908083835b60208310151561057d5780518252602082019150602081019050602083039250610558565b6001836020036101000a038019825116818451168082178552505050505050905001915050604051809103902014905092915050565b60006003808111156105c157fe5b826060015160ff16149050919050565b60008060038111156105df57fe5b826060015160ff16149050919050565b6000600160038111156105fe57fe5b826060015160ff16149050919050565b60006002600381111561061d57fe5b826060015160ff16149050919050565b600080826000015183602001518460400151604051602001808473ffffffffffffffffffffffffffffffffffffffff1673ffffffffffffffffffffffffffffffffffffffff166c010000000000000000000000000281526014018363ffffffff1663ffffffff167c0100000000000000000000000000000000000000000000000000000000028152600401828051906020019060200280838360005b838110156106e45780820151818401526020810190506106c9565b50505050905001935050505060405160208183030381529060405280519060200120905060008160005260005190508092505050919050565b60008160e0015160405160200180828051906020019060200280838360005b8381101561075757808201518184015260208101905061073c565b50505050905001915050604051602081830303815290604052805190602001208360e0015160405160200180828051906020019060200280838360005b838110156107af578082015181840152602081019050610794565b505050509050019150506040516020818303038152906040528051906020012014905092915050565b610803846040516020016107ec9190611307565b604051602081830303815290604052848484610880565b73ffffffffffffffffffffffffffffffffffffffff1661082285610499565b73ffffffffffffffffffffffffffffffffffffffff1614151561087a576040517f08c379a0000000000000000000000000000000000000000000000000000000008152600401610871906112e7565b60405180910390fd5b50505050565b600060606040805190810160405280601c81526020017f19457468657265756d205369676e6564204d6573736167653a0a3332000000008152509050600086805190602001209050600082826040516020018083805190602001908083835b60208310151561090457805182526020820191506020810190506020830392506108df565b6001836020036101000a03801982511681845116808217855250505050505090500182815260200192505050604051602081830303815290604052805190602001209050600060018289898960405160008152602001604052604051808581526020018460ff1660ff1681526020018381526020018281526020019450505050506020604051602081039080840390855afa1580156109a7573d6000803e3d6000fd5b50505060206040510351905080945050505050949350505050565b60006109ce82356114dc565b905092915050565b600082601f83011215156109e957600080fd5b81356109fc6109f782611356565b611329565b91508181835260208401935060208101905083856020840282011115610a2157600080fd5b60005b83811015610a515781610a3788826109c2565b845260208401935060208301925050600181019050610a24565b5050505092915050565b600082601f8301121515610a6e57600080fd5b8135610a81610a7c8261137e565b611329565b91508181835260208401935060208101905083856020840282011115610aa657600080fd5b60005b83811015610ad65781610abc8882610bea565b845260208401935060208301925050600181019050610aa9565b5050505092915050565b600082601f8301121515610af357600080fd5b8135610b06610b01826113a6565b611329565b91508181835260208401935060208101905083856020840282011115610b2b57600080fd5b60005b83811015610b5b5781610b418882610d90565b845260208401935060208301925050600181019050610b2e565b5050505092915050565b600082601f8301121515610b7857600080fd5b8135610b8b610b86826113ce565b611329565b91508181835260208401935060208101905083856020840282011115610bb057600080fd5b60005b83811015610be05781610bc68882610db8565b845260208401935060208301925050600181019050610bb3565b5050505092915050565b6000610bf682356114ee565b905092915050565b600082601f8301121515610c1157600080fd5b8135610c24610c1f826113f6565b611329565b91508082526020830160208301858383011115610c4057600080fd5b610c4b83828461151f565b50505092915050565b60006101208284031215610c6757600080fd5b610c72610120611329565b90506000610c82848285016109c2565b6000830152506020610c9684828501610da4565b602083015250604082013567ffffffffffffffff811115610cb657600080fd5b610cc2848285016109d6565b6040830152506060610cd684828501610db8565b6060830152506080610cea84828501610da4565b60808301525060a0610cfe84828501610da4565b60a08301525060c082013567ffffffffffffffff811115610d1e57600080fd5b610d2a848285016109d6565b60c08301525060e082013567ffffffffffffffff811115610d4a57600080fd5b610d5684828501610ae0565b60e08301525061010082013567ffffffffffffffff811115610d7757600080fd5b610d8384828501610bfe565b6101008301525092915050565b6000610d9c82356114f8565b905092915050565b6000610db08235611502565b905092915050565b6000610dc48235611512565b905092915050565b600060208284031215610dde57600080fd5b600082013567ffffffffffffffff811115610df857600080fd5b610e0484828501610c54565b91505092915050565b60008060008060808587031215610e2357600080fd5b600085013567ffffffffffffffff811115610e3d57600080fd5b610e4987828801610c54565b945050602085013567ffffffffffffffff811115610e6657600080fd5b610e7287828801610b65565b935050604085013567ffffffffffffffff811115610e8f57600080fd5b610e9b87828801610a5b565b925050606085013567ffffffffffffffff811115610eb857600080fd5b610ec487828801610a5b565b91505092959194509250565b60008060408385031215610ee357600080fd5b600083013567ffffffffffffffff811115610efd57600080fd5b610f0985828601610c54565b925050602083013567ffffffffffffffff811115610f2657600080fd5b610f3285828601610c54565b9150509250929050565b60008060008060808587031215610f5257600080fd5b600085013567ffffffffffffffff811115610f6c57600080fd5b610f7887828801610c54565b9450506020610f8987828801610db8565b9350506040610f9a87828801610bea565b9250506060610fab87828801610bea565b91505092959194509250565b610fc081611477565b82525050565b610fcf81611477565b82525050565b6000610fe08261143c565b808452602084019350610ff283611422565b60005b8281101561102457611008868351610fb7565b6110118261145d565b9150602086019550600181019050610ff5565b50849250505092915050565b600061103b82611447565b80845260208401935061104d8361142f565b60005b8281101561107f57611063868351611264565b61106c8261146a565b9150602086019550600181019050611050565b50849250505092915050565b61109481611489565b82525050565b60006110a582611452565b8084526110b981602086016020860161152e565b6110c281611561565b602085010191505092915050565b6000602682527f616c6c206d6f76657273206d7573742068617665207369676e656420436f6d6d60208301527f69746d656e7400000000000000000000000000000000000000000000000000006040830152606082019050919050565b6000602182527f6d6f766572206d7573742068617665207369676e656420436f6d6d69746d656e60208301527f74000000000000000000000000000000000000000000000000000000000000006040830152606082019050919050565b6000610120830160008301516111a36000860182610fb7565b5060208301516111b66020860182611273565b50604083015184820360408601526111ce8282610fd5565b91505060608301516111e36060860182611282565b5060808301516111f66080860182611273565b5060a083015161120960a0860182611273565b5060c083015184820360c08601526112218282610fd5565b91505060e083015184820360e086015261123b8282611030565b915050610100830151848203610100860152611257828261109a565b9150508091505092915050565b61126d816114b5565b82525050565b61127c816114bf565b82525050565b61128b816114cf565b82525050565b60006020820190506112a66000830184610fc6565b92915050565b60006020820190506112c1600083018461108b565b92915050565b600060208201905081810360008301526112e0816110d0565b9050919050565b600060208201905081810360008301526113008161112d565b9050919050565b60006020820190508181036000830152611321818461118a565b905092915050565b6000604051905081810181811067ffffffffffffffff8211171561134c57600080fd5b8060405250919050565b600067ffffffffffffffff82111561136d57600080fd5b602082029050602081019050919050565b600067ffffffffffffffff82111561139557600080fd5b602082029050602081019050919050565b600067ffffffffffffffff8211156113bd57600080fd5b602082029050602081019050919050565b600067ffffffffffffffff8211156113e557600080fd5b602082029050602081019050919050565b600067ffffffffffffffff82111561140d57600080fd5b601f19601f8301169050602081019050919050565b6000602082019050919050565b6000602082019050919050565b600081519050919050565b600081519050919050565b600081519050919050565b6000602082019050919050565b6000602082019050919050565b600061148282611495565b9050919050565b60008115159050919050565b600073ffffffffffffffffffffffffffffffffffffffff82169050919050565b6000819050919050565b600063ffffffff82169050919050565b600060ff82169050919050565b60006114e782611495565b9050919050565b6000819050919050565b6000819050919050565b600063ffffffff82169050919050565b600060ff82169050919050565b82818337600083830152505050565b60005b8381101561154c578082015181840152602081019050611531565b8381111561155b576000848401525b50505050565b6000601f19601f830116905091905056fea265627a7a7230582056efeaabdf8eb71c6bfb3a04dfe5fa580d57fd6e95a2206c5a20c9509ec9b4a66c6578706572696d656e74616cf50037",
  "source": "pragma solidity ^0.5.0;\npragma experimental ABIEncoderV2;\n\nlibrary Commitment {\n    enum CommitmentType { PreFundSetup, PostFundSetup, App, Conclude }\n\n    struct CommitmentStruct {\n        address channelType;\n        uint32 nonce;\n        address[] participants;\n        uint8 commitmentType;\n        uint32 turnNum;\n        uint32 commitmentCount;\n        address[] destination;\n        uint256[] allocation;\n        bytes appAttributes;\n    }\n\n    function isPreFundSetup(CommitmentStruct memory self) public pure returns (bool) {\n        return self.commitmentType == uint(CommitmentType.PreFundSetup);\n    }\n\n    function isPostFundSetup(CommitmentStruct memory self) public pure returns (bool) {\n        return self.commitmentType == uint(CommitmentType.PostFundSetup);\n    }\n\n    function isApp(CommitmentStruct memory self) public pure returns (bool) {\n        return self.commitmentType == uint(CommitmentType.App);\n    }\n\n    function isConclude(CommitmentStruct memory self) public pure returns (bool) {\n        return self.commitmentType == uint(CommitmentType.Conclude);\n    }\n\n    function channelId(CommitmentStruct memory _commitment) public pure returns (address) {\n        bytes32 h = keccak256(\n            abi.encodePacked(_commitment.channelType, _commitment.nonce, _commitment.participants)\n        );\n        address addr;\n        assembly {\n            mstore(0, h)\n        addr := mload(0)\n        } \n        return addr;\n    }\n\n    function mover(CommitmentStruct memory _commitment) public pure returns (address) {\n        return _commitment.participants[_commitment.turnNum % _commitment.participants.length];\n    }\n\n    function requireSignature(CommitmentStruct memory _commitment, uint8 _v, bytes32 _r, bytes32 _s) public pure {\n        require(\n            mover(_commitment) == recoverSigner(abi.encode(_commitment), _v, _r, _s),\n            \"mover must have signed Commitment\"\n        );\n    }\n\n    function requireFullySigned(CommitmentStruct memory _commitment, uint8[] memory _v, bytes32[] memory _r, bytes32[] memory _s) public pure {\n        for(uint i = 0; i < _commitment.participants.length; i++) {\n            require(\n                _commitment.participants[i] == recoverSigner(abi.encode(_commitment), _v[i], _r[i], _s[i]),\n                \"all movers must have signed Commitment\"\n            );\n        }\n    }\n\n    function appAttributesEqual(CommitmentStruct memory _commitment, CommitmentStruct memory _otherCommitment) public pure returns (bool) {\n        return keccak256(_commitment.appAttributes) == keccak256(_otherCommitment.appAttributes);\n    }\n\n    function allocationsEqual(CommitmentStruct memory _commitment, CommitmentStruct memory _otherCommitment) public pure returns (bool) {\n        return keccak256(abi.encodePacked(_commitment.allocation)) == keccak256(abi.encodePacked(_otherCommitment.allocation));\n    }\n\n    function destinationsEqual(CommitmentStruct memory _commitment, CommitmentStruct memory _otherCommitment) public pure returns (bool) {\n        return keccak256(abi.encodePacked(_commitment.destination)) == keccak256(abi.encodePacked(_otherCommitment.destination));\n    }\n\n    // utilities\n    // =========\n\n    function recoverSigner(bytes memory _d, uint8 _v, bytes32 _r, bytes32 _s) internal pure returns(address) {\n        bytes memory prefix = \"\\x19Ethereum Signed Message:\\n32\";\n        bytes32 h = keccak256(_d);\n\n        bytes32 prefixedHash = keccak256(abi.encodePacked(prefix, h));\n\n        address a = ecrecover(prefixedHash, _v, _r, _s);\n\n        return(a);\n    }\n}\n",
  "sourcePath": "fmg-core/contracts/Commitment.sol",
  "compiler": {
    "name": "solc",
    "version": "0.5.2+commit.1df8f40c.Emscripten.clang"
  },
  "schemaVersion": "3.0.2",
  "updatedAt": "2019-02-28T04:08:33.712Z",
  "devdoc": {
    "methods": {}
  },
  "userdoc": {
    "methods": {}
  }
}