{
  "contractName": "RouletteGame",
  "abi": [
    {
      "constant": true,
      "inputs": [
        {
          "components": [
            {
              "name": "channelType",
              "type": "address"
            },
            {
              "name": "nonce",
              "type": "uint32"
            },
            {
              "name": "participants",
              "type": "address[]"
            },
            {
              "name": "commitmentType",
              "type": "uint8"
            },
            {
              "name": "turnNum",
              "type": "uint32"
            },
            {
              "name": "commitmentCount",
              "type": "uint32"
            },
            {
              "name": "destination",
              "type": "address[]"
            },
            {
              "name": "allocation",
              "type": "uint256[]"
            },
            {
              "name": "appAttributes",
              "type": "bytes"
            }
          ],
          "name": "_old",
          "type": "tuple"
        },
        {
          "components": [
            {
              "name": "channelType",
              "type": "address"
            },
            {
              "name": "nonce",
              "type": "uint32"
            },
            {
              "name": "participants",
              "type": "address[]"
            },
            {
              "name": "commitmentType",
              "type": "uint8"
            },
            {
              "name": "turnNum",
              "type": "uint32"
            },
            {
              "name": "commitmentCount",
              "type": "uint32"
            },
            {
              "name": "destination",
              "type": "address[]"
            },
            {
              "name": "allocation",
              "type": "uint256[]"
            },
            {
              "name": "appAttributes",
              "type": "bytes"
            }
          ],
          "name": "_new",
          "type": "tuple"
        }
      ],
      "name": "validTransition",
      "outputs": [
        {
          "name": "",
          "type": "bool"
        }
      ],
      "payable": false,
      "stateMutability": "pure",
      "type": "function",
      "signature": "0x40853790"
    }
  ],
  "bytecode": "0x608060405234801561001057600080fd5b50610562806100206000396000f3fe608060405234801561001057600080fd5b5060043610610048576000357c010000000000000000000000000000000000000000000000000000000090048063408537901461004d575b600080fd5b61006760048036036100629190810190610375565b61007d565b60405161007491906103f0565b60405180910390f35b60006001905092915050565b600061009582356104e0565b905092915050565b600082601f83011215156100b057600080fd5b81356100c36100be82610438565b61040b565b915081818352602084019350602081019050838560208402820111156100e857600080fd5b60005b8381101561011857816100fe8882610089565b8452602084019350602083019250506001810190506100eb565b5050505092915050565b600082601f830112151561013557600080fd5b813561014861014382610460565b61040b565b9150818183526020840193506020810190508385602084028201111561016d57600080fd5b60005b8381101561019d57816101838882610339565b845260208401935060208301925050600181019050610170565b5050505092915050565b600082601f83011215156101ba57600080fd5b81356101cd6101c882610488565b61040b565b915080825260208301602083018583830111156101e957600080fd5b6101f4838284610519565b50505092915050565b6000610120828403121561021057600080fd5b61021b61012061040b565b9050600061022b84828501610089565b600083015250602061023f8482850161034d565b602083015250604082013567ffffffffffffffff81111561025f57600080fd5b61026b8482850161009d565b604083015250606061027f84828501610361565b60608301525060806102938482850161034d565b60808301525060a06102a78482850161034d565b60a08301525060c082013567ffffffffffffffff8111156102c757600080fd5b6102d38482850161009d565b60c08301525060e082013567ffffffffffffffff8111156102f357600080fd5b6102ff84828501610122565b60e08301525061010082013567ffffffffffffffff81111561032057600080fd5b61032c848285016101a7565b6101008301525092915050565b600061034582356104f2565b905092915050565b600061035982356104fc565b905092915050565b600061036d823561050c565b905092915050565b6000806040838503121561038857600080fd5b600083013567ffffffffffffffff8111156103a257600080fd5b6103ae858286016101fd565b925050602083013567ffffffffffffffff8111156103cb57600080fd5b6103d7858286016101fd565b9150509250929050565b6103ea816104b4565b82525050565b600060208201905061040560008301846103e1565b92915050565b6000604051905081810181811067ffffffffffffffff8211171561042e57600080fd5b8060405250919050565b600067ffffffffffffffff82111561044f57600080fd5b602082029050602081019050919050565b600067ffffffffffffffff82111561047757600080fd5b602082029050602081019050919050565b600067ffffffffffffffff82111561049f57600080fd5b601f19601f8301169050602081019050919050565b60008115159050919050565b600073ffffffffffffffffffffffffffffffffffffffff82169050919050565b60006104eb826104c0565b9050919050565b6000819050919050565b600063ffffffff82169050919050565b600060ff82169050919050565b8281833760008383015250505056fea265627a7a723058201fe2abc189571c3409bda059e6688dbc4f0b71c0890a3e376cf14e2736ee06b16c6578706572696d656e74616cf50037",
  "source": "pragma solidity ^0.5.0;\npragma experimental ABIEncoderV2;\n\nimport \"fmg-core/contracts/Commitment.sol\";\nimport \"./RouletteCommitment.sol\";\n\ncontract RouletteGame {\n\n    function validTransition(Commitment.CommitmentStruct memory _old, Commitment.CommitmentStruct memory _new) public pure returns (bool) {\n\t// TODO: Validate app transitions\n\treturn true;    \n    }\n}",
  "sourcePath": "/Users/alexgap/code/apps/packages/roulette/contracts/RouletteGame.sol",
  "compiler": {
    "name": "solc",
    "version": "0.5.2+commit.1df8f40c.Emscripten.clang"
  },
  "schemaVersion": "3.0.2",
  "updatedAt": "2019-02-28T04:08:33.704Z",
  "devdoc": {
    "methods": {}
  },
  "userdoc": {
    "methods": {}
  }
}